{
	"data": {
		"bytecode": {
			"linkReferences": {},
			"object": "60e06040523480156200001157600080fd5b50604051620022a6380380620022a683398181016040528101906200003791906200018c565b8173ffffffffffffffffffffffffffffffffffffffff1660808173ffffffffffffffffffffffffffffffffffffffff16815250508073ffffffffffffffffffffffffffffffffffffffff1660a08173ffffffffffffffffffffffffffffffffffffffff168152505060a05173ffffffffffffffffffffffffffffffffffffffff1663d509b0176040518163ffffffff1660e01b8152600401602060405180830381865afa158015620000ed573d6000803e3d6000fd5b505050506040513d601f19601f820116820180604052508101906200011391906200020e565b60c08181525050505062000240565b600080fd5b600073ffffffffffffffffffffffffffffffffffffffff82169050919050565b6000620001548262000127565b9050919050565b620001668162000147565b81146200017257600080fd5b50565b60008151905062000186816200015b565b92915050565b60008060408385031215620001a657620001a562000122565b5b6000620001b68582860162000175565b9250506020620001c98582860162000175565b9150509250929050565b6000819050919050565b620001e881620001d3565b8114620001f457600080fd5b50565b6000815190506200020881620001dd565b92915050565b60006020828403121562000227576200022662000122565b5b60006200023784828501620001f7565b91505092915050565b60805160a05160c051611ff7620002af600039600081816104ee0152610704015260008181610260015281816102c5015281816103d10152818161043901526107280152600081816101de0152818161030101528181610387015281816103f301526104cc0152611ff76000f3fe608060405234801561001057600080fd5b50600436106100935760003560e01c8063b33893da11610066578063b33893da14610135578063b75d4e2414610168578063d448a4ec14610186578063d509b017146101a2578063f1b156b2146101c057610093565b806320402e1d1461009857806354f6127f146100b65780638921a614146100e757806393ee663b14610105575b600080fd5b6100a06101dc565b6040516100ad919061120a565b60405180910390f35b6100d060048036038101906100cb9190611260565b610200565b6040516100de9291906112b7565b60405180910390f35b6100ef61025e565b6040516100fc9190611301565b60405180910390f35b61011f600480360381019061011a919061135a565b610282565b60405161012c91906113ad565b60405180910390f35b61014f600480360381019061014a9190611260565b61069c565b60405161015f94939291906113d7565b60405180910390f35b6101706106f9565b60405161017d919061143f565b60405180910390f35b6101a0600480360381019061019b9190611260565b6106ff565b005b6101aa610702565b6040516101b791906113ad565b60405180910390f35b6101da60048036038101906101d59190611486565b610726565b005b7f000000000000000000000000000000000000000000000000000000000000000081565b60008060008084815260200190815260200160002060020160149054906101000a900460ff1661023c576000808060001b905091509150610259565b600160008085815260200190815260200160002060010154915091505b915091565b7f000000000000000000000000000000000000000000000000000000000000000081565b60008073ffffffffffffffffffffffffffffffffffffffff168273ffffffffffffffffffffffffffffffffffffffff16146102bd57816102bf565b335b915060007f000000000000000000000000000000000000000000000000000000000000000073ffffffffffffffffffffffffffffffffffffffff16634360af3d7f00000000000000000000000000000000000000000000000000000000000000006040518263ffffffff1660e01b815260040161033c91906114c6565b602060405180830381865afa158015610359573d6000803e3d6000fd5b505050506040513d601f19601f8201168201806040525081019061037d9190611517565b90506103cc3330837f000000000000000000000000000000000000000000000000000000000000000073ffffffffffffffffffffffffffffffffffffffff1661091f909392919063ffffffff16565b6104377f0000000000000000000000000000000000000000000000000000000000000000827f000000000000000000000000000000000000000000000000000000000000000073ffffffffffffffffffffffffffffffffffffffff166109a89092919063ffffffff16565b7f000000000000000000000000000000000000000000000000000000000000000073ffffffffffffffffffffffffffffffffffffffff16636457c97961047c86610af7565b61048588610af7565b61048e87610b36565b61049742610b99565b6104a030610b36565b6040516020016104b49594939291906117ae565b60405160208183030381529060405285306000611c207f0000000000000000000000000000000000000000000000000000000000000000887f00000000000000000000000000000000000000000000000000000000000000006000801b6040518a63ffffffff1660e01b8152600401610535999897969594939291906118a5565b6020604051808303816000875af1158015610554573d6000803e3d6000fd5b505050506040513d601f19601f82011682018060405250810190610578919061194e565b915060405180608001604052808681526020018581526020018473ffffffffffffffffffffffffffffffffffffffff16815260200160001515815250600080848152602001908152602001600020600082015181600001556020820151816001015560408201518160020160006101000a81548173ffffffffffffffffffffffffffffffffffffffff021916908373ffffffffffffffffffffffffffffffffffffffff16021790555060608201518160020160146101000a81548160ff021916908315150217905550905050818373ffffffffffffffffffffffffffffffffffffffff16867f29ae27364abd65b112ad0ac18e7e4f97360c20afa9636864dc91195d4d9204ec8760405161068c91906113ad565b60405180910390a4509392505050565b60006020528060005260406000206000915090508060000154908060010154908060020160009054906101000a900473ffffffffffffffffffffffffffffffffffffffff16908060020160149054906101000a900460ff16905084565b611c2081565b50565b7f000000000000000000000000000000000000000000000000000000000000000081565b7f000000000000000000000000000000000000000000000000000000000000000073ffffffffffffffffffffffffffffffffffffffff163373ffffffffffffffffffffffffffffffffffffffff161461077e57600080fd5b80156108ba57600160008084815260200190815260200160002060020160146101000a81548160ff021916908315150217905550600080600084815260200190815260200160002060405180608001604052908160008201548152602001600182015481526020016002820160009054906101000a900473ffffffffffffffffffffffffffffffffffffffff1673ffffffffffffffffffffffffffffffffffffffff1673ffffffffffffffffffffffffffffffffffffffff1681526020016002820160149054906101000a900460ff161515151581525050905082816040015173ffffffffffffffffffffffffffffffffffffffff1682600001517fe49ab75dd8ad20084c43aacc9218434d61af074f44263f887212c41ad2d41c9d84602001516040516108ac91906113ad565b60405180910390a45061091b565b60008083815260200190815260200160002060008082016000905560018201600090556002820160006101000a81549073ffffffffffffffffffffffffffffffffffffffff02191690556002820160146101000a81549060ff021916905550505b5050565b6109a2846323b872dd60e01b8585856040516024016109409392919061197b565b604051602081830303815290604052907bffffffffffffffffffffffffffffffffffffffffffffffffffffffff19166020820180517bffffffffffffffffffffffffffffffffffffffffffffffffffffffff8381831617835250505050610d21565b50505050565b6000811480610a32575060008373ffffffffffffffffffffffffffffffffffffffff1663dd62ed3e30856040518363ffffffff1660e01b81526004016109ef9291906119b2565b602060405180830381865afa158015610a0c573d6000803e3d6000fd5b505050506040513d601f19601f82011682018060405250810190610a309190611517565b145b610a71576040517f08c379a0000000000000000000000000000000000000000000000000000000008152600401610a6890611a5e565b60405180910390fd5b610af28363095ea7b360e01b8484604051602401610a90929190611a7e565b604051602081830303815290604052907bffffffffffffffffffffffffffffffffffffffffffffffffffffffff19166020820180517bffffffffffffffffffffffffffffffffffffffffffffffffffffffff8381831617835250505050610d21565b505050565b6060610b06608083901c610de9565b610b0f83610de9565b604051602001610b20929190611ac8565b6040516020818303038152906040529050919050565b6060610b5760808360601b6bffffffffffffffffffffffff1916901c610de9565b610b728360601b6bffffffffffffffffffffffff1916610de9565b604051602001610b83929190611b41565b6040516020818303038152906040529050919050565b606060008203610be0576040518060400160405280600181526020017f30000000000000000000000000000000000000000000000000000000000000008152509050610d1c565b600082905060005b60008214610c12578080610bfb90611b9c565b915050600a82610c0b9190611c13565b9150610be8565b60008167ffffffffffffffff811115610c2e57610c2d611c44565b5b6040519080825280601f01601f191660200182016040528015610c605781602001600182028036833780820191505090505b50905060008290505b60008614610d1457600181610c7e9190611c73565b90506000600a8088610c909190611c13565b610c9a9190611ca7565b87610ca59190611c73565b6030610cb19190611d0e565b905060008160f81b905080848481518110610ccf57610cce611d43565b5b60200101907effffffffffffffffffffffffffffffffffffffffffffffffffffffffffffff1916908160001a905350600a88610d0b9190611c13565b97505050610c69565b819450505050505b919050565b6000610d83826040518060400160405280602081526020017f5361666545524332303a206c6f772d6c6576656c2063616c6c206661696c65648152508573ffffffffffffffffffffffffffffffffffffffff16610fbe9092919063ffffffff16565b9050600081511480610da5575080806020019051810190610da49190611d87565b5b610de4576040517f08c379a0000000000000000000000000000000000000000000000000000000008152600401610ddb90611e26565b60405180910390fd5b505050565b6000808260001c90506fffffffffffffffffffffffffffffffff8116905077ffffffffffffffff0000000000000000ffffffffffffffff68010000000000000000820282171690507bffffffff00000000ffffffff00000000ffffffff00000000ffffffff640100000000820282171690507dffff0000ffff0000ffff0000ffff0000ffff0000ffff0000ffff0000ffff62010000820282171690507eff00ff00ff00ff00ff00ff00ff00ff00ff00ff00ff00ff00ff00ff00ff00ff610100820282171690507f0f0f0f0f0f0f0f0f0f0f0f0f0f0f0f0f0f0f0f0f0f0f0f0f0f0f0f0f0f0f0f0f601082028217169050600060087f0808080808080808080808080808080808080808080808080808080808080808831681610f0e57610f0d611be4565b5b049050600060047f0404040404040404040404040404040404040404040404040404040404040404841681610f4657610f45611be4565b5b049050600060027f0202020202020202020202020202020202020202020202020202020202020202851681610f7e57610f7d611be4565b5b0490507f3030303030303030303030303030303030303030303030303030303030303030602782841785160285010193508360001b945050505050919050565b6060610fcd8484600085610fd6565b90509392505050565b60608247101561101b576040517f08c379a000000000000000000000000000000000000000000000000000000000815260040161101290611eb8565b60405180910390fd5b6000808673ffffffffffffffffffffffffffffffffffffffff1685876040516110449190611ed8565b60006040518083038185875af1925050503d8060008114611081576040519150601f19603f3d011682016040523d82523d6000602084013e611086565b606091505b5091509150611097878383876110a3565b92505050949350505050565b606083156111055760008351036110fd576110bd85611118565b6110fc576040517f08c379a00000000000000000000000000000000000000000000000000000000081526004016110f390611f3b565b60405180910390fd5b5b829050611110565b61110f838361113b565b5b949350505050565b6000808273ffffffffffffffffffffffffffffffffffffffff163b119050919050565b60008251111561114e5781518083602001fd5b806040517f08c379a00000000000000000000000000000000000000000000000000000000081526004016111829190611f9f565b60405180910390fd5b600073ffffffffffffffffffffffffffffffffffffffff82169050919050565b6000819050919050565b60006111d06111cb6111c68461118b565b6111ab565b61118b565b9050919050565b60006111e2826111b5565b9050919050565b60006111f4826111d7565b9050919050565b611204816111e9565b82525050565b600060208201905061121f60008301846111fb565b92915050565b600080fd5b6000819050919050565b61123d8161122a565b811461124857600080fd5b50565b60008135905061125a81611234565b92915050565b60006020828403121561127657611275611225565b5b60006112848482850161124b565b91505092915050565b60008115159050919050565b6112a28161128d565b82525050565b6112b18161122a565b82525050565b60006040820190506112cc6000830185611299565b6112d960208301846112a8565b9392505050565b60006112eb826111d7565b9050919050565b6112fb816112e0565b82525050565b600060208201905061131660008301846112f2565b92915050565b60006113278261118b565b9050919050565b6113378161131c565b811461134257600080fd5b50565b6000813590506113548161132e565b92915050565b60008060006060848603121561137357611372611225565b5b60006113818682870161124b565b93505060206113928682870161124b565b92505060406113a386828701611345565b9150509250925092565b60006020820190506113c260008301846112a8565b92915050565b6113d18161131c565b82525050565b60006080820190506113ec60008301876112a8565b6113f960208301866112a8565b61140660408301856113c8565b6114136060830184611299565b95945050505050565b600067ffffffffffffffff82169050919050565b6114398161141c565b82525050565b60006020820190506114546000830184611430565b92915050565b6114638161128d565b811461146e57600080fd5b50565b6000813590506114808161145a565b92915050565b6000806040838503121561149d5761149c611225565b5b60006114ab8582860161124b565b92505060206114bc85828601611471565b9150509250929050565b60006020820190506114db60008301846113c8565b92915050565b6000819050919050565b6114f4816114e1565b81146114ff57600080fd5b50565b600081519050611511816114eb565b92915050565b60006020828403121561152d5761152c611225565b5b600061153b84828501611502565b91505092915050565b600081905092915050565b7f446174612061737365727465643a203078000000000000000000000000000000600082015250565b6000611585601183611544565b91506115908261154f565b601182019050919050565b600081519050919050565b600081905092915050565b60005b838110156115cf5780820151818401526020810190506115b4565b60008484015250505050565b60006115e68261159b565b6115f081856115a6565b93506116008185602086016115b1565b80840191505092915050565b7f20666f72206461746149643a2030780000000000000000000000000000000000600082015250565b6000611642600f83611544565b915061164d8261160c565b600f82019050919050565b7f20616e642061737365727465723a203078000000000000000000000000000000600082015250565b600061168e601183611544565b915061169982611658565b601182019050919050565b7f2061742074696d657374616d703a200000000000000000000000000000000000600082015250565b60006116da600f83611544565b91506116e5826116a4565b600f82019050919050565b7f20696e207468652044617461417373657274657220636f6e747261637420617460008201527f2030780000000000000000000000000000000000000000000000000000000000602082015250565b600061174c602383611544565b9150611757826116f0565b602382019050919050565b7f2069732076616c69642e00000000000000000000000000000000000000000000600082015250565b6000611798600a83611544565b91506117a382611762565b600a82019050919050565b60006117b982611578565b91506117c582886115db565b91506117d082611635565b91506117dc82876115db565b91506117e782611681565b91506117f382866115db565b91506117fe826116cd565b915061180a82856115db565b91506118158261173f565b915061182182846115db565b915061182c8261178b565b91508190509695505050505050565b600082825260208201905092915050565b6000601f19601f8301169050919050565b60006118688261159b565b611872818561183b565b93506118828185602086016115b1565b61188b8161184c565b840191505092915050565b61189f816114e1565b82525050565b60006101208201905081810360008301526118c0818c61185d565b90506118cf602083018b6113c8565b6118dc604083018a6113c8565b6118e960608301896113c8565b6118f66080830188611430565b61190360a08301876111fb565b61191060c0830186611896565b61191d60e08301856112a8565b61192b6101008301846112a8565b9a9950505050505050505050565b60008151905061194881611234565b92915050565b60006020828403121561196457611963611225565b5b600061197284828501611939565b91505092915050565b600060608201905061199060008301866113c8565b61199d60208301856113c8565b6119aa6040830184611896565b949350505050565b60006040820190506119c760008301856113c8565b6119d460208301846113c8565b9392505050565b600082825260208201905092915050565b7f5361666545524332303a20617070726f76652066726f6d206e6f6e2d7a65726f60008201527f20746f206e6f6e2d7a65726f20616c6c6f77616e636500000000000000000000602082015250565b6000611a486036836119db565b9150611a53826119ec565b604082019050919050565b60006020820190508181036000830152611a7781611a3b565b9050919050565b6000604082019050611a9360008301856113c8565b611aa06020830184611896565b9392505050565b6000819050919050565b611ac2611abd8261122a565b611aa7565b82525050565b6000611ad48285611ab1565b602082019150611ae48284611ab1565b6020820191508190509392505050565b60007fffffffffffffffff00000000000000000000000000000000000000000000000082169050919050565b6000819050919050565b611b3b611b3682611af4565b611b20565b82525050565b6000611b4d8285611ab1565b602082019150611b5d8284611b2a565b6008820191508190509392505050565b7f4e487b7100000000000000000000000000000000000000000000000000000000600052601160045260246000fd5b6000611ba7826114e1565b91507fffffffffffffffffffffffffffffffffffffffffffffffffffffffffffffffff8203611bd957611bd8611b6d565b5b600182019050919050565b7f4e487b7100000000000000000000000000000000000000000000000000000000600052601260045260246000fd5b6000611c1e826114e1565b9150611c29836114e1565b925082611c3957611c38611be4565b5b828204905092915050565b7f4e487b7100000000000000000000000000000000000000000000000000000000600052604160045260246000fd5b6000611c7e826114e1565b9150611c89836114e1565b9250828203905081811115611ca157611ca0611b6d565b5b92915050565b6000611cb2826114e1565b9150611cbd836114e1565b9250817fffffffffffffffffffffffffffffffffffffffffffffffffffffffffffffffff0483118215151615611cf657611cf5611b6d565b5b828202905092915050565b600060ff82169050919050565b6000611d1982611d01565b9150611d2483611d01565b9250828201905060ff811115611d3d57611d3c611b6d565b5b92915050565b7f4e487b7100000000000000000000000000000000000000000000000000000000600052603260045260246000fd5b600081519050611d818161145a565b92915050565b600060208284031215611d9d57611d9c611225565b5b6000611dab84828501611d72565b91505092915050565b7f5361666545524332303a204552433230206f7065726174696f6e20646964206e60008201527f6f74207375636365656400000000000000000000000000000000000000000000602082015250565b6000611e10602a836119db565b9150611e1b82611db4565b604082019050919050565b60006020820190508181036000830152611e3f81611e03565b9050919050565b7f416464726573733a20696e73756666696369656e742062616c616e636520666f60008201527f722063616c6c0000000000000000000000000000000000000000000000000000602082015250565b6000611ea26026836119db565b9150611ead82611e46565b604082019050919050565b60006020820190508181036000830152611ed181611e95565b9050919050565b6000611ee482846115db565b915081905092915050565b7f416464726573733a2063616c6c20746f206e6f6e2d636f6e7472616374000000600082015250565b6000611f25601d836119db565b9150611f3082611eef565b602082019050919050565b60006020820190508181036000830152611f5481611f18565b9050919050565b600081519050919050565b6000611f7182611f5b565b611f7b81856119db565b9350611f8b8185602086016115b1565b611f948161184c565b840191505092915050565b60006020820190508181036000830152611fb98184611f66565b90509291505056fea2646970667358221220e7d839fb68cfae3d86b3534a6a9fb5b0bbb84b76071af0694142078f1ed1b4e064736f6c63430008100033",
			"opcodes": "PUSH1 0xE0 PUSH1 0x40 MSTORE CALLVALUE DUP1 ISZERO PUSH3 0x11 JUMPI PUSH1 0x0 DUP1 REVERT JUMPDEST POP PUSH1 0x40 MLOAD PUSH3 0x22A6 CODESIZE SUB DUP1 PUSH3 0x22A6 DUP4 CODECOPY DUP2 DUP2 ADD PUSH1 0x40 MSTORE DUP2 ADD SWAP1 PUSH3 0x37 SWAP2 SWAP1 PUSH3 0x18C JUMP JUMPDEST DUP2 PUSH20 0xFFFFFFFFFFFFFFFFFFFFFFFFFFFFFFFFFFFFFFFF AND PUSH1 0x80 DUP2 PUSH20 0xFFFFFFFFFFFFFFFFFFFFFFFFFFFFFFFFFFFFFFFF AND DUP2 MSTORE POP POP DUP1 PUSH20 0xFFFFFFFFFFFFFFFFFFFFFFFFFFFFFFFFFFFFFFFF AND PUSH1 0xA0 DUP2 PUSH20 0xFFFFFFFFFFFFFFFFFFFFFFFFFFFFFFFFFFFFFFFF AND DUP2 MSTORE POP POP PUSH1 0xA0 MLOAD PUSH20 0xFFFFFFFFFFFFFFFFFFFFFFFFFFFFFFFFFFFFFFFF AND PUSH4 0xD509B017 PUSH1 0x40 MLOAD DUP2 PUSH4 0xFFFFFFFF AND PUSH1 0xE0 SHL DUP2 MSTORE PUSH1 0x4 ADD PUSH1 0x20 PUSH1 0x40 MLOAD DUP1 DUP4 SUB DUP2 DUP7 GAS STATICCALL ISZERO DUP1 ISZERO PUSH3 0xED JUMPI RETURNDATASIZE PUSH1 0x0 DUP1 RETURNDATACOPY RETURNDATASIZE PUSH1 0x0 REVERT JUMPDEST POP POP POP POP PUSH1 0x40 MLOAD RETURNDATASIZE PUSH1 0x1F NOT PUSH1 0x1F DUP3 ADD AND DUP3 ADD DUP1 PUSH1 0x40 MSTORE POP DUP2 ADD SWAP1 PUSH3 0x113 SWAP2 SWAP1 PUSH3 0x20E JUMP JUMPDEST PUSH1 0xC0 DUP2 DUP2 MSTORE POP POP POP POP PUSH3 0x240 JUMP JUMPDEST PUSH1 0x0 DUP1 REVERT JUMPDEST PUSH1 0x0 PUSH20 0xFFFFFFFFFFFFFFFFFFFFFFFFFFFFFFFFFFFFFFFF DUP3 AND SWAP1 POP SWAP2 SWAP1 POP JUMP JUMPDEST PUSH1 0x0 PUSH3 0x154 DUP3 PUSH3 0x127 JUMP JUMPDEST SWAP1 POP SWAP2 SWAP1 POP JUMP JUMPDEST PUSH3 0x166 DUP2 PUSH3 0x147 JUMP JUMPDEST DUP2 EQ PUSH3 0x172 JUMPI PUSH1 0x0 DUP1 REVERT JUMPDEST POP JUMP JUMPDEST PUSH1 0x0 DUP2 MLOAD SWAP1 POP PUSH3 0x186 DUP2 PUSH3 0x15B JUMP JUMPDEST SWAP3 SWAP2 POP POP JUMP JUMPDEST PUSH1 0x0 DUP1 PUSH1 0x40 DUP4 DUP6 SUB SLT ISZERO PUSH3 0x1A6 JUMPI PUSH3 0x1A5 PUSH3 0x122 JUMP JUMPDEST JUMPDEST PUSH1 0x0 PUSH3 0x1B6 DUP6 DUP3 DUP7 ADD PUSH3 0x175 JUMP JUMPDEST SWAP3 POP POP PUSH1 0x20 PUSH3 0x1C9 DUP6 DUP3 DUP7 ADD PUSH3 0x175 JUMP JUMPDEST SWAP2 POP POP SWAP3 POP SWAP3 SWAP1 POP JUMP JUMPDEST PUSH1 0x0 DUP2 SWAP1 POP SWAP2 SWAP1 POP JUMP JUMPDEST PUSH3 0x1E8 DUP2 PUSH3 0x1D3 JUMP JUMPDEST DUP2 EQ PUSH3 0x1F4 JUMPI PUSH1 0x0 DUP1 REVERT JUMPDEST POP JUMP JUMPDEST PUSH1 0x0 DUP2 MLOAD SWAP1 POP PUSH3 0x208 DUP2 PUSH3 0x1DD JUMP JUMPDEST SWAP3 SWAP2 POP POP JUMP JUMPDEST PUSH1 0x0 PUSH1 0x20 DUP3 DUP5 SUB SLT ISZERO PUSH3 0x227 JUMPI PUSH3 0x226 PUSH3 0x122 JUMP JUMPDEST JUMPDEST PUSH1 0x0 PUSH3 0x237 DUP5 DUP3 DUP6 ADD PUSH3 0x1F7 JUMP JUMPDEST SWAP2 POP POP SWAP3 SWAP2 POP POP JUMP JUMPDEST PUSH1 0x80 MLOAD PUSH1 0xA0 MLOAD PUSH1 0xC0 MLOAD PUSH2 0x1FF7 PUSH3 0x2AF PUSH1 0x0 CODECOPY PUSH1 0x0 DUP2 DUP2 PUSH2 0x4EE ADD MSTORE PUSH2 0x704 ADD MSTORE PUSH1 0x0 DUP2 DUP2 PUSH2 0x260 ADD MSTORE DUP2 DUP2 PUSH2 0x2C5 ADD MSTORE DUP2 DUP2 PUSH2 0x3D1 ADD MSTORE DUP2 DUP2 PUSH2 0x439 ADD MSTORE PUSH2 0x728 ADD MSTORE PUSH1 0x0 DUP2 DUP2 PUSH2 0x1DE ADD MSTORE DUP2 DUP2 PUSH2 0x301 ADD MSTORE DUP2 DUP2 PUSH2 0x387 ADD MSTORE DUP2 DUP2 PUSH2 0x3F3 ADD MSTORE PUSH2 0x4CC ADD MSTORE PUSH2 0x1FF7 PUSH1 0x0 RETURN INVALID PUSH1 0x80 PUSH1 0x40 MSTORE CALLVALUE DUP1 ISZERO PUSH2 0x10 JUMPI PUSH1 0x0 DUP1 REVERT JUMPDEST POP PUSH1 0x4 CALLDATASIZE LT PUSH2 0x93 JUMPI PUSH1 0x0 CALLDATALOAD PUSH1 0xE0 SHR DUP1 PUSH4 0xB33893DA GT PUSH2 0x66 JUMPI DUP1 PUSH4 0xB33893DA EQ PUSH2 0x135 JUMPI DUP1 PUSH4 0xB75D4E24 EQ PUSH2 0x168 JUMPI DUP1 PUSH4 0xD448A4EC EQ PUSH2 0x186 JUMPI DUP1 PUSH4 0xD509B017 EQ PUSH2 0x1A2 JUMPI DUP1 PUSH4 0xF1B156B2 EQ PUSH2 0x1C0 JUMPI PUSH2 0x93 JUMP JUMPDEST DUP1 PUSH4 0x20402E1D EQ PUSH2 0x98 JUMPI DUP1 PUSH4 0x54F6127F EQ PUSH2 0xB6 JUMPI DUP1 PUSH4 0x8921A614 EQ PUSH2 0xE7 JUMPI DUP1 PUSH4 0x93EE663B EQ PUSH2 0x105 JUMPI JUMPDEST PUSH1 0x0 DUP1 REVERT JUMPDEST PUSH2 0xA0 PUSH2 0x1DC JUMP JUMPDEST PUSH1 0x40 MLOAD PUSH2 0xAD SWAP2 SWAP1 PUSH2 0x120A JUMP JUMPDEST PUSH1 0x40 MLOAD DUP1 SWAP2 SUB SWAP1 RETURN JUMPDEST PUSH2 0xD0 PUSH1 0x4 DUP1 CALLDATASIZE SUB DUP2 ADD SWAP1 PUSH2 0xCB SWAP2 SWAP1 PUSH2 0x1260 JUMP JUMPDEST PUSH2 0x200 JUMP JUMPDEST PUSH1 0x40 MLOAD PUSH2 0xDE SWAP3 SWAP2 SWAP1 PUSH2 0x12B7 JUMP JUMPDEST PUSH1 0x40 MLOAD DUP1 SWAP2 SUB SWAP1 RETURN JUMPDEST PUSH2 0xEF PUSH2 0x25E JUMP JUMPDEST PUSH1 0x40 MLOAD PUSH2 0xFC SWAP2 SWAP1 PUSH2 0x1301 JUMP JUMPDEST PUSH1 0x40 MLOAD DUP1 SWAP2 SUB SWAP1 RETURN JUMPDEST PUSH2 0x11F PUSH1 0x4 DUP1 CALLDATASIZE SUB DUP2 ADD SWAP1 PUSH2 0x11A SWAP2 SWAP1 PUSH2 0x135A JUMP JUMPDEST PUSH2 0x282 JUMP JUMPDEST PUSH1 0x40 MLOAD PUSH2 0x12C SWAP2 SWAP1 PUSH2 0x13AD JUMP JUMPDEST PUSH1 0x40 MLOAD DUP1 SWAP2 SUB SWAP1 RETURN JUMPDEST PUSH2 0x14F PUSH1 0x4 DUP1 CALLDATASIZE SUB DUP2 ADD SWAP1 PUSH2 0x14A SWAP2 SWAP1 PUSH2 0x1260 JUMP JUMPDEST PUSH2 0x69C JUMP JUMPDEST PUSH1 0x40 MLOAD PUSH2 0x15F SWAP5 SWAP4 SWAP3 SWAP2 SWAP1 PUSH2 0x13D7 JUMP JUMPDEST PUSH1 0x40 MLOAD DUP1 SWAP2 SUB SWAP1 RETURN JUMPDEST PUSH2 0x170 PUSH2 0x6F9 JUMP JUMPDEST PUSH1 0x40 MLOAD PUSH2 0x17D SWAP2 SWAP1 PUSH2 0x143F JUMP JUMPDEST PUSH1 0x40 MLOAD DUP1 SWAP2 SUB SWAP1 RETURN JUMPDEST PUSH2 0x1A0 PUSH1 0x4 DUP1 CALLDATASIZE SUB DUP2 ADD SWAP1 PUSH2 0x19B SWAP2 SWAP1 PUSH2 0x1260 JUMP JUMPDEST PUSH2 0x6FF JUMP JUMPDEST STOP JUMPDEST PUSH2 0x1AA PUSH2 0x702 JUMP JUMPDEST PUSH1 0x40 MLOAD PUSH2 0x1B7 SWAP2 SWAP1 PUSH2 0x13AD JUMP JUMPDEST PUSH1 0x40 MLOAD DUP1 SWAP2 SUB SWAP1 RETURN JUMPDEST PUSH2 0x1DA PUSH1 0x4 DUP1 CALLDATASIZE SUB DUP2 ADD SWAP1 PUSH2 0x1D5 SWAP2 SWAP1 PUSH2 0x1486 JUMP JUMPDEST PUSH2 0x726 JUMP JUMPDEST STOP JUMPDEST PUSH32 0x0 DUP2 JUMP JUMPDEST PUSH1 0x0 DUP1 PUSH1 0x0 DUP1 DUP5 DUP2 MSTORE PUSH1 0x20 ADD SWAP1 DUP2 MSTORE PUSH1 0x20 ADD PUSH1 0x0 KECCAK256 PUSH1 0x2 ADD PUSH1 0x14 SWAP1 SLOAD SWAP1 PUSH2 0x100 EXP SWAP1 DIV PUSH1 0xFF AND PUSH2 0x23C JUMPI PUSH1 0x0 DUP1 DUP1 PUSH1 0x0 SHL SWAP1 POP SWAP2 POP SWAP2 POP PUSH2 0x259 JUMP JUMPDEST PUSH1 0x1 PUSH1 0x0 DUP1 DUP6 DUP2 MSTORE PUSH1 0x20 ADD SWAP1 DUP2 MSTORE PUSH1 0x20 ADD PUSH1 0x0 KECCAK256 PUSH1 0x1 ADD SLOAD SWAP2 POP SWAP2 POP JUMPDEST SWAP2 POP SWAP2 JUMP JUMPDEST PUSH32 0x0 DUP2 JUMP JUMPDEST PUSH1 0x0 DUP1 PUSH20 0xFFFFFFFFFFFFFFFFFFFFFFFFFFFFFFFFFFFFFFFF AND DUP3 PUSH20 0xFFFFFFFFFFFFFFFFFFFFFFFFFFFFFFFFFFFFFFFF AND EQ PUSH2 0x2BD JUMPI DUP2 PUSH2 0x2BF JUMP JUMPDEST CALLER JUMPDEST SWAP2 POP PUSH1 0x0 PUSH32 0x0 PUSH20 0xFFFFFFFFFFFFFFFFFFFFFFFFFFFFFFFFFFFFFFFF AND PUSH4 0x4360AF3D PUSH32 0x0 PUSH1 0x40 MLOAD DUP3 PUSH4 0xFFFFFFFF AND PUSH1 0xE0 SHL DUP2 MSTORE PUSH1 0x4 ADD PUSH2 0x33C SWAP2 SWAP1 PUSH2 0x14C6 JUMP JUMPDEST PUSH1 0x20 PUSH1 0x40 MLOAD DUP1 DUP4 SUB DUP2 DUP7 GAS STATICCALL ISZERO DUP1 ISZERO PUSH2 0x359 JUMPI RETURNDATASIZE PUSH1 0x0 DUP1 RETURNDATACOPY RETURNDATASIZE PUSH1 0x0 REVERT JUMPDEST POP POP POP POP PUSH1 0x40 MLOAD RETURNDATASIZE PUSH1 0x1F NOT PUSH1 0x1F DUP3 ADD AND DUP3 ADD DUP1 PUSH1 0x40 MSTORE POP DUP2 ADD SWAP1 PUSH2 0x37D SWAP2 SWAP1 PUSH2 0x1517 JUMP JUMPDEST SWAP1 POP PUSH2 0x3CC CALLER ADDRESS DUP4 PUSH32 0x0 PUSH20 0xFFFFFFFFFFFFFFFFFFFFFFFFFFFFFFFFFFFFFFFF AND PUSH2 0x91F SWAP1 SWAP4 SWAP3 SWAP2 SWAP1 PUSH4 0xFFFFFFFF AND JUMP JUMPDEST PUSH2 0x437 PUSH32 0x0 DUP3 PUSH32 0x0 PUSH20 0xFFFFFFFFFFFFFFFFFFFFFFFFFFFFFFFFFFFFFFFF AND PUSH2 0x9A8 SWAP1 SWAP3 SWAP2 SWAP1 PUSH4 0xFFFFFFFF AND JUMP JUMPDEST PUSH32 0x0 PUSH20 0xFFFFFFFFFFFFFFFFFFFFFFFFFFFFFFFFFFFFFFFF AND PUSH4 0x6457C979 PUSH2 0x47C DUP7 PUSH2 0xAF7 JUMP JUMPDEST PUSH2 0x485 DUP9 PUSH2 0xAF7 JUMP JUMPDEST PUSH2 0x48E DUP8 PUSH2 0xB36 JUMP JUMPDEST PUSH2 0x497 TIMESTAMP PUSH2 0xB99 JUMP JUMPDEST PUSH2 0x4A0 ADDRESS PUSH2 0xB36 JUMP JUMPDEST PUSH1 0x40 MLOAD PUSH1 0x20 ADD PUSH2 0x4B4 SWAP6 SWAP5 SWAP4 SWAP3 SWAP2 SWAP1 PUSH2 0x17AE JUMP JUMPDEST PUSH1 0x40 MLOAD PUSH1 0x20 DUP2 DUP4 SUB SUB DUP2 MSTORE SWAP1 PUSH1 0x40 MSTORE DUP6 ADDRESS PUSH1 0x0 PUSH2 0x1C20 PUSH32 0x0 DUP9 PUSH32 0x0 PUSH1 0x0 DUP1 SHL PUSH1 0x40 MLOAD DUP11 PUSH4 0xFFFFFFFF AND PUSH1 0xE0 SHL DUP2 MSTORE PUSH1 0x4 ADD PUSH2 0x535 SWAP10 SWAP9 SWAP8 SWAP7 SWAP6 SWAP5 SWAP4 SWAP3 SWAP2 SWAP1 PUSH2 0x18A5 JUMP JUMPDEST PUSH1 0x20 PUSH1 0x40 MLOAD DUP1 DUP4 SUB DUP2 PUSH1 0x0 DUP8 GAS CALL ISZERO DUP1 ISZERO PUSH2 0x554 JUMPI RETURNDATASIZE PUSH1 0x0 DUP1 RETURNDATACOPY RETURNDATASIZE PUSH1 0x0 REVERT JUMPDEST POP POP POP POP PUSH1 0x40 MLOAD RETURNDATASIZE PUSH1 0x1F NOT PUSH1 0x1F DUP3 ADD AND DUP3 ADD DUP1 PUSH1 0x40 MSTORE POP DUP2 ADD SWAP1 PUSH2 0x578 SWAP2 SWAP1 PUSH2 0x194E JUMP JUMPDEST SWAP2 POP PUSH1 0x40 MLOAD DUP1 PUSH1 0x80 ADD PUSH1 0x40 MSTORE DUP1 DUP7 DUP2 MSTORE PUSH1 0x20 ADD DUP6 DUP2 MSTORE PUSH1 0x20 ADD DUP5 PUSH20 0xFFFFFFFFFFFFFFFFFFFFFFFFFFFFFFFFFFFFFFFF AND DUP2 MSTORE PUSH1 0x20 ADD PUSH1 0x0 ISZERO ISZERO DUP2 MSTORE POP PUSH1 0x0 DUP1 DUP5 DUP2 MSTORE PUSH1 0x20 ADD SWAP1 DUP2 MSTORE PUSH1 0x20 ADD PUSH1 0x0 KECCAK256 PUSH1 0x0 DUP3 ADD MLOAD DUP2 PUSH1 0x0 ADD SSTORE PUSH1 0x20 DUP3 ADD MLOAD DUP2 PUSH1 0x1 ADD SSTORE PUSH1 0x40 DUP3 ADD MLOAD DUP2 PUSH1 0x2 ADD PUSH1 0x0 PUSH2 0x100 EXP DUP2 SLOAD DUP2 PUSH20 0xFFFFFFFFFFFFFFFFFFFFFFFFFFFFFFFFFFFFFFFF MUL NOT AND SWAP1 DUP4 PUSH20 0xFFFFFFFFFFFFFFFFFFFFFFFFFFFFFFFFFFFFFFFF AND MUL OR SWAP1 SSTORE POP PUSH1 0x60 DUP3 ADD MLOAD DUP2 PUSH1 0x2 ADD PUSH1 0x14 PUSH2 0x100 EXP DUP2 SLOAD DUP2 PUSH1 0xFF MUL NOT AND SWAP1 DUP4 ISZERO ISZERO MUL OR SWAP1 SSTORE POP SWAP1 POP POP DUP2 DUP4 PUSH20 0xFFFFFFFFFFFFFFFFFFFFFFFFFFFFFFFFFFFFFFFF AND DUP7 PUSH32 0x29AE27364ABD65B112AD0AC18E7E4F97360C20AFA9636864DC91195D4D9204EC DUP8 PUSH1 0x40 MLOAD PUSH2 0x68C SWAP2 SWAP1 PUSH2 0x13AD JUMP JUMPDEST PUSH1 0x40 MLOAD DUP1 SWAP2 SUB SWAP1 LOG4 POP SWAP4 SWAP3 POP POP POP JUMP JUMPDEST PUSH1 0x0 PUSH1 0x20 MSTORE DUP1 PUSH1 0x0 MSTORE PUSH1 0x40 PUSH1 0x0 KECCAK256 PUSH1 0x0 SWAP2 POP SWAP1 POP DUP1 PUSH1 0x0 ADD SLOAD SWAP1 DUP1 PUSH1 0x1 ADD SLOAD SWAP1 DUP1 PUSH1 0x2 ADD PUSH1 0x0 SWAP1 SLOAD SWAP1 PUSH2 0x100 EXP SWAP1 DIV PUSH20 0xFFFFFFFFFFFFFFFFFFFFFFFFFFFFFFFFFFFFFFFF AND SWAP1 DUP1 PUSH1 0x2 ADD PUSH1 0x14 SWAP1 SLOAD SWAP1 PUSH2 0x100 EXP SWAP1 DIV PUSH1 0xFF AND SWAP1 POP DUP5 JUMP JUMPDEST PUSH2 0x1C20 DUP2 JUMP JUMPDEST POP JUMP JUMPDEST PUSH32 0x0 DUP2 JUMP JUMPDEST PUSH32 0x0 PUSH20 0xFFFFFFFFFFFFFFFFFFFFFFFFFFFFFFFFFFFFFFFF AND CALLER PUSH20 0xFFFFFFFFFFFFFFFFFFFFFFFFFFFFFFFFFFFFFFFF AND EQ PUSH2 0x77E JUMPI PUSH1 0x0 DUP1 REVERT JUMPDEST DUP1 ISZERO PUSH2 0x8BA JUMPI PUSH1 0x1 PUSH1 0x0 DUP1 DUP5 DUP2 MSTORE PUSH1 0x20 ADD SWAP1 DUP2 MSTORE PUSH1 0x20 ADD PUSH1 0x0 KECCAK256 PUSH1 0x2 ADD PUSH1 0x14 PUSH2 0x100 EXP DUP2 SLOAD DUP2 PUSH1 0xFF MUL NOT AND SWAP1 DUP4 ISZERO ISZERO MUL OR SWAP1 SSTORE POP PUSH1 0x0 DUP1 PUSH1 0x0 DUP5 DUP2 MSTORE PUSH1 0x20 ADD SWAP1 DUP2 MSTORE PUSH1 0x20 ADD PUSH1 0x0 KECCAK256 PUSH1 0x40 MLOAD DUP1 PUSH1 0x80 ADD PUSH1 0x40 MSTORE SWAP1 DUP2 PUSH1 0x0 DUP3 ADD SLOAD DUP2 MSTORE PUSH1 0x20 ADD PUSH1 0x1 DUP3 ADD SLOAD DUP2 MSTORE PUSH1 0x20 ADD PUSH1 0x2 DUP3 ADD PUSH1 0x0 SWAP1 SLOAD SWAP1 PUSH2 0x100 EXP SWAP1 DIV PUSH20 0xFFFFFFFFFFFFFFFFFFFFFFFFFFFFFFFFFFFFFFFF AND PUSH20 0xFFFFFFFFFFFFFFFFFFFFFFFFFFFFFFFFFFFFFFFF AND PUSH20 0xFFFFFFFFFFFFFFFFFFFFFFFFFFFFFFFFFFFFFFFF AND DUP2 MSTORE PUSH1 0x20 ADD PUSH1 0x2 DUP3 ADD PUSH1 0x14 SWAP1 SLOAD SWAP1 PUSH2 0x100 EXP SWAP1 DIV PUSH1 0xFF AND ISZERO ISZERO ISZERO ISZERO DUP2 MSTORE POP POP SWAP1 POP DUP3 DUP2 PUSH1 0x40 ADD MLOAD PUSH20 0xFFFFFFFFFFFFFFFFFFFFFFFFFFFFFFFFFFFFFFFF AND DUP3 PUSH1 0x0 ADD MLOAD PUSH32 0xE49AB75DD8AD20084C43AACC9218434D61AF074F44263F887212C41AD2D41C9D DUP5 PUSH1 0x20 ADD MLOAD PUSH1 0x40 MLOAD PUSH2 0x8AC SWAP2 SWAP1 PUSH2 0x13AD JUMP JUMPDEST PUSH1 0x40 MLOAD DUP1 SWAP2 SUB SWAP1 LOG4 POP PUSH2 0x91B JUMP JUMPDEST PUSH1 0x0 DUP1 DUP4 DUP2 MSTORE PUSH1 0x20 ADD SWAP1 DUP2 MSTORE PUSH1 0x20 ADD PUSH1 0x0 KECCAK256 PUSH1 0x0 DUP1 DUP3 ADD PUSH1 0x0 SWAP1 SSTORE PUSH1 0x1 DUP3 ADD PUSH1 0x0 SWAP1 SSTORE PUSH1 0x2 DUP3 ADD PUSH1 0x0 PUSH2 0x100 EXP DUP2 SLOAD SWAP1 PUSH20 0xFFFFFFFFFFFFFFFFFFFFFFFFFFFFFFFFFFFFFFFF MUL NOT AND SWAP1 SSTORE PUSH1 0x2 DUP3 ADD PUSH1 0x14 PUSH2 0x100 EXP DUP2 SLOAD SWAP1 PUSH1 0xFF MUL NOT AND SWAP1 SSTORE POP POP JUMPDEST POP POP JUMP JUMPDEST PUSH2 0x9A2 DUP5 PUSH4 0x23B872DD PUSH1 0xE0 SHL DUP6 DUP6 DUP6 PUSH1 0x40 MLOAD PUSH1 0x24 ADD PUSH2 0x940 SWAP4 SWAP3 SWAP2 SWAP1 PUSH2 0x197B JUMP JUMPDEST PUSH1 0x40 MLOAD PUSH1 0x20 DUP2 DUP4 SUB SUB DUP2 MSTORE SWAP1 PUSH1 0x40 MSTORE SWAP1 PUSH28 0xFFFFFFFFFFFFFFFFFFFFFFFFFFFFFFFFFFFFFFFFFFFFFFFFFFFFFFFF NOT AND PUSH1 0x20 DUP3 ADD DUP1 MLOAD PUSH28 0xFFFFFFFFFFFFFFFFFFFFFFFFFFFFFFFFFFFFFFFFFFFFFFFFFFFFFFFF DUP4 DUP2 DUP4 AND OR DUP4 MSTORE POP POP POP POP PUSH2 0xD21 JUMP JUMPDEST POP POP POP POP JUMP JUMPDEST PUSH1 0x0 DUP2 EQ DUP1 PUSH2 0xA32 JUMPI POP PUSH1 0x0 DUP4 PUSH20 0xFFFFFFFFFFFFFFFFFFFFFFFFFFFFFFFFFFFFFFFF AND PUSH4 0xDD62ED3E ADDRESS DUP6 PUSH1 0x40 MLOAD DUP4 PUSH4 0xFFFFFFFF AND PUSH1 0xE0 SHL DUP2 MSTORE PUSH1 0x4 ADD PUSH2 0x9EF SWAP3 SWAP2 SWAP1 PUSH2 0x19B2 JUMP JUMPDEST PUSH1 0x20 PUSH1 0x40 MLOAD DUP1 DUP4 SUB DUP2 DUP7 GAS STATICCALL ISZERO DUP1 ISZERO PUSH2 0xA0C JUMPI RETURNDATASIZE PUSH1 0x0 DUP1 RETURNDATACOPY RETURNDATASIZE PUSH1 0x0 REVERT JUMPDEST POP POP POP POP PUSH1 0x40 MLOAD RETURNDATASIZE PUSH1 0x1F NOT PUSH1 0x1F DUP3 ADD AND DUP3 ADD DUP1 PUSH1 0x40 MSTORE POP DUP2 ADD SWAP1 PUSH2 0xA30 SWAP2 SWAP1 PUSH2 0x1517 JUMP JUMPDEST EQ JUMPDEST PUSH2 0xA71 JUMPI PUSH1 0x40 MLOAD PUSH32 0x8C379A000000000000000000000000000000000000000000000000000000000 DUP2 MSTORE PUSH1 0x4 ADD PUSH2 0xA68 SWAP1 PUSH2 0x1A5E JUMP JUMPDEST PUSH1 0x40 MLOAD DUP1 SWAP2 SUB SWAP1 REVERT JUMPDEST PUSH2 0xAF2 DUP4 PUSH4 0x95EA7B3 PUSH1 0xE0 SHL DUP5 DUP5 PUSH1 0x40 MLOAD PUSH1 0x24 ADD PUSH2 0xA90 SWAP3 SWAP2 SWAP1 PUSH2 0x1A7E JUMP JUMPDEST PUSH1 0x40 MLOAD PUSH1 0x20 DUP2 DUP4 SUB SUB DUP2 MSTORE SWAP1 PUSH1 0x40 MSTORE SWAP1 PUSH28 0xFFFFFFFFFFFFFFFFFFFFFFFFFFFFFFFFFFFFFFFFFFFFFFFFFFFFFFFF NOT AND PUSH1 0x20 DUP3 ADD DUP1 MLOAD PUSH28 0xFFFFFFFFFFFFFFFFFFFFFFFFFFFFFFFFFFFFFFFFFFFFFFFFFFFFFFFF DUP4 DUP2 DUP4 AND OR DUP4 MSTORE POP POP POP POP PUSH2 0xD21 JUMP JUMPDEST POP POP POP JUMP JUMPDEST PUSH1 0x60 PUSH2 0xB06 PUSH1 0x80 DUP4 SWAP1 SHR PUSH2 0xDE9 JUMP JUMPDEST PUSH2 0xB0F DUP4 PUSH2 0xDE9 JUMP JUMPDEST PUSH1 0x40 MLOAD PUSH1 0x20 ADD PUSH2 0xB20 SWAP3 SWAP2 SWAP1 PUSH2 0x1AC8 JUMP JUMPDEST PUSH1 0x40 MLOAD PUSH1 0x20 DUP2 DUP4 SUB SUB DUP2 MSTORE SWAP1 PUSH1 0x40 MSTORE SWAP1 POP SWAP2 SWAP1 POP JUMP JUMPDEST PUSH1 0x60 PUSH2 0xB57 PUSH1 0x80 DUP4 PUSH1 0x60 SHL PUSH12 0xFFFFFFFFFFFFFFFFFFFFFFFF NOT AND SWAP1 SHR PUSH2 0xDE9 JUMP JUMPDEST PUSH2 0xB72 DUP4 PUSH1 0x60 SHL PUSH12 0xFFFFFFFFFFFFFFFFFFFFFFFF NOT AND PUSH2 0xDE9 JUMP JUMPDEST PUSH1 0x40 MLOAD PUSH1 0x20 ADD PUSH2 0xB83 SWAP3 SWAP2 SWAP1 PUSH2 0x1B41 JUMP JUMPDEST PUSH1 0x40 MLOAD PUSH1 0x20 DUP2 DUP4 SUB SUB DUP2 MSTORE SWAP1 PUSH1 0x40 MSTORE SWAP1 POP SWAP2 SWAP1 POP JUMP JUMPDEST PUSH1 0x60 PUSH1 0x0 DUP3 SUB PUSH2 0xBE0 JUMPI PUSH1 0x40 MLOAD DUP1 PUSH1 0x40 ADD PUSH1 0x40 MSTORE DUP1 PUSH1 0x1 DUP2 MSTORE PUSH1 0x20 ADD PUSH32 0x3000000000000000000000000000000000000000000000000000000000000000 DUP2 MSTORE POP SWAP1 POP PUSH2 0xD1C JUMP JUMPDEST PUSH1 0x0 DUP3 SWAP1 POP PUSH1 0x0 JUMPDEST PUSH1 0x0 DUP3 EQ PUSH2 0xC12 JUMPI DUP1 DUP1 PUSH2 0xBFB SWAP1 PUSH2 0x1B9C JUMP JUMPDEST SWAP2 POP POP PUSH1 0xA DUP3 PUSH2 0xC0B SWAP2 SWAP1 PUSH2 0x1C13 JUMP JUMPDEST SWAP2 POP PUSH2 0xBE8 JUMP JUMPDEST PUSH1 0x0 DUP2 PUSH8 0xFFFFFFFFFFFFFFFF DUP2 GT ISZERO PUSH2 0xC2E JUMPI PUSH2 0xC2D PUSH2 0x1C44 JUMP JUMPDEST JUMPDEST PUSH1 0x40 MLOAD SWAP1 DUP1 DUP3 MSTORE DUP1 PUSH1 0x1F ADD PUSH1 0x1F NOT AND PUSH1 0x20 ADD DUP3 ADD PUSH1 0x40 MSTORE DUP1 ISZERO PUSH2 0xC60 JUMPI DUP2 PUSH1 0x20 ADD PUSH1 0x1 DUP3 MUL DUP1 CALLDATASIZE DUP4 CALLDATACOPY DUP1 DUP3 ADD SWAP2 POP POP SWAP1 POP JUMPDEST POP SWAP1 POP PUSH1 0x0 DUP3 SWAP1 POP JUMPDEST PUSH1 0x0 DUP7 EQ PUSH2 0xD14 JUMPI PUSH1 0x1 DUP2 PUSH2 0xC7E SWAP2 SWAP1 PUSH2 0x1C73 JUMP JUMPDEST SWAP1 POP PUSH1 0x0 PUSH1 0xA DUP1 DUP9 PUSH2 0xC90 SWAP2 SWAP1 PUSH2 0x1C13 JUMP JUMPDEST PUSH2 0xC9A SWAP2 SWAP1 PUSH2 0x1CA7 JUMP JUMPDEST DUP8 PUSH2 0xCA5 SWAP2 SWAP1 PUSH2 0x1C73 JUMP JUMPDEST PUSH1 0x30 PUSH2 0xCB1 SWAP2 SWAP1 PUSH2 0x1D0E JUMP JUMPDEST SWAP1 POP PUSH1 0x0 DUP2 PUSH1 0xF8 SHL SWAP1 POP DUP1 DUP5 DUP5 DUP2 MLOAD DUP2 LT PUSH2 0xCCF JUMPI PUSH2 0xCCE PUSH2 0x1D43 JUMP JUMPDEST JUMPDEST PUSH1 0x20 ADD ADD SWAP1 PUSH31 0xFFFFFFFFFFFFFFFFFFFFFFFFFFFFFFFFFFFFFFFFFFFFFFFFFFFFFFFFFFFFFF NOT AND SWAP1 DUP2 PUSH1 0x0 BYTE SWAP1 MSTORE8 POP PUSH1 0xA DUP9 PUSH2 0xD0B SWAP2 SWAP1 PUSH2 0x1C13 JUMP JUMPDEST SWAP8 POP POP POP PUSH2 0xC69 JUMP JUMPDEST DUP2 SWAP5 POP POP POP POP POP JUMPDEST SWAP2 SWAP1 POP JUMP JUMPDEST PUSH1 0x0 PUSH2 0xD83 DUP3 PUSH1 0x40 MLOAD DUP1 PUSH1 0x40 ADD PUSH1 0x40 MSTORE DUP1 PUSH1 0x20 DUP2 MSTORE PUSH1 0x20 ADD PUSH32 0x5361666545524332303A206C6F772D6C6576656C2063616C6C206661696C6564 DUP2 MSTORE POP DUP6 PUSH20 0xFFFFFFFFFFFFFFFFFFFFFFFFFFFFFFFFFFFFFFFF AND PUSH2 0xFBE SWAP1 SWAP3 SWAP2 SWAP1 PUSH4 0xFFFFFFFF AND JUMP JUMPDEST SWAP1 POP PUSH1 0x0 DUP2 MLOAD EQ DUP1 PUSH2 0xDA5 JUMPI POP DUP1 DUP1 PUSH1 0x20 ADD SWAP1 MLOAD DUP2 ADD SWAP1 PUSH2 0xDA4 SWAP2 SWAP1 PUSH2 0x1D87 JUMP JUMPDEST JUMPDEST PUSH2 0xDE4 JUMPI PUSH1 0x40 MLOAD PUSH32 0x8C379A000000000000000000000000000000000000000000000000000000000 DUP2 MSTORE PUSH1 0x4 ADD PUSH2 0xDDB SWAP1 PUSH2 0x1E26 JUMP JUMPDEST PUSH1 0x40 MLOAD DUP1 SWAP2 SUB SWAP1 REVERT JUMPDEST POP POP POP JUMP JUMPDEST PUSH1 0x0 DUP1 DUP3 PUSH1 0x0 SHR SWAP1 POP PUSH16 0xFFFFFFFFFFFFFFFFFFFFFFFFFFFFFFFF DUP2 AND SWAP1 POP PUSH24 0xFFFFFFFFFFFFFFFF0000000000000000FFFFFFFFFFFFFFFF PUSH9 0x10000000000000000 DUP3 MUL DUP3 OR AND SWAP1 POP PUSH28 0xFFFFFFFF00000000FFFFFFFF00000000FFFFFFFF00000000FFFFFFFF PUSH5 0x100000000 DUP3 MUL DUP3 OR AND SWAP1 POP PUSH30 0xFFFF0000FFFF0000FFFF0000FFFF0000FFFF0000FFFF0000FFFF0000FFFF PUSH3 0x10000 DUP3 MUL DUP3 OR AND SWAP1 POP PUSH31 0xFF00FF00FF00FF00FF00FF00FF00FF00FF00FF00FF00FF00FF00FF00FF00FF PUSH2 0x100 DUP3 MUL DUP3 OR AND SWAP1 POP PUSH32 0xF0F0F0F0F0F0F0F0F0F0F0F0F0F0F0F0F0F0F0F0F0F0F0F0F0F0F0F0F0F0F0F PUSH1 0x10 DUP3 MUL DUP3 OR AND SWAP1 POP PUSH1 0x0 PUSH1 0x8 PUSH32 0x808080808080808080808080808080808080808080808080808080808080808 DUP4 AND DUP2 PUSH2 0xF0E JUMPI PUSH2 0xF0D PUSH2 0x1BE4 JUMP JUMPDEST JUMPDEST DIV SWAP1 POP PUSH1 0x0 PUSH1 0x4 PUSH32 0x404040404040404040404040404040404040404040404040404040404040404 DUP5 AND DUP2 PUSH2 0xF46 JUMPI PUSH2 0xF45 PUSH2 0x1BE4 JUMP JUMPDEST JUMPDEST DIV SWAP1 POP PUSH1 0x0 PUSH1 0x2 PUSH32 0x202020202020202020202020202020202020202020202020202020202020202 DUP6 AND DUP2 PUSH2 0xF7E JUMPI PUSH2 0xF7D PUSH2 0x1BE4 JUMP JUMPDEST JUMPDEST DIV SWAP1 POP PUSH32 0x3030303030303030303030303030303030303030303030303030303030303030 PUSH1 0x27 DUP3 DUP5 OR DUP6 AND MUL DUP6 ADD ADD SWAP4 POP DUP4 PUSH1 0x0 SHL SWAP5 POP POP POP POP POP SWAP2 SWAP1 POP JUMP JUMPDEST PUSH1 0x60 PUSH2 0xFCD DUP5 DUP5 PUSH1 0x0 DUP6 PUSH2 0xFD6 JUMP JUMPDEST SWAP1 POP SWAP4 SWAP3 POP POP POP JUMP JUMPDEST PUSH1 0x60 DUP3 SELFBALANCE LT ISZERO PUSH2 0x101B JUMPI PUSH1 0x40 MLOAD PUSH32 0x8C379A000000000000000000000000000000000000000000000000000000000 DUP2 MSTORE PUSH1 0x4 ADD PUSH2 0x1012 SWAP1 PUSH2 0x1EB8 JUMP JUMPDEST PUSH1 0x40 MLOAD DUP1 SWAP2 SUB SWAP1 REVERT JUMPDEST PUSH1 0x0 DUP1 DUP7 PUSH20 0xFFFFFFFFFFFFFFFFFFFFFFFFFFFFFFFFFFFFFFFF AND DUP6 DUP8 PUSH1 0x40 MLOAD PUSH2 0x1044 SWAP2 SWAP1 PUSH2 0x1ED8 JUMP JUMPDEST PUSH1 0x0 PUSH1 0x40 MLOAD DUP1 DUP4 SUB DUP2 DUP6 DUP8 GAS CALL SWAP3 POP POP POP RETURNDATASIZE DUP1 PUSH1 0x0 DUP2 EQ PUSH2 0x1081 JUMPI PUSH1 0x40 MLOAD SWAP2 POP PUSH1 0x1F NOT PUSH1 0x3F RETURNDATASIZE ADD AND DUP3 ADD PUSH1 0x40 MSTORE RETURNDATASIZE DUP3 MSTORE RETURNDATASIZE PUSH1 0x0 PUSH1 0x20 DUP5 ADD RETURNDATACOPY PUSH2 0x1086 JUMP JUMPDEST PUSH1 0x60 SWAP2 POP JUMPDEST POP SWAP2 POP SWAP2 POP PUSH2 0x1097 DUP8 DUP4 DUP4 DUP8 PUSH2 0x10A3 JUMP JUMPDEST SWAP3 POP POP POP SWAP5 SWAP4 POP POP POP POP JUMP JUMPDEST PUSH1 0x60 DUP4 ISZERO PUSH2 0x1105 JUMPI PUSH1 0x0 DUP4 MLOAD SUB PUSH2 0x10FD JUMPI PUSH2 0x10BD DUP6 PUSH2 0x1118 JUMP JUMPDEST PUSH2 0x10FC JUMPI PUSH1 0x40 MLOAD PUSH32 0x8C379A000000000000000000000000000000000000000000000000000000000 DUP2 MSTORE PUSH1 0x4 ADD PUSH2 0x10F3 SWAP1 PUSH2 0x1F3B JUMP JUMPDEST PUSH1 0x40 MLOAD DUP1 SWAP2 SUB SWAP1 REVERT JUMPDEST JUMPDEST DUP3 SWAP1 POP PUSH2 0x1110 JUMP JUMPDEST PUSH2 0x110F DUP4 DUP4 PUSH2 0x113B JUMP JUMPDEST JUMPDEST SWAP5 SWAP4 POP POP POP POP JUMP JUMPDEST PUSH1 0x0 DUP1 DUP3 PUSH20 0xFFFFFFFFFFFFFFFFFFFFFFFFFFFFFFFFFFFFFFFF AND EXTCODESIZE GT SWAP1 POP SWAP2 SWAP1 POP JUMP JUMPDEST PUSH1 0x0 DUP3 MLOAD GT ISZERO PUSH2 0x114E JUMPI DUP2 MLOAD DUP1 DUP4 PUSH1 0x20 ADD REVERT JUMPDEST DUP1 PUSH1 0x40 MLOAD PUSH32 0x8C379A000000000000000000000000000000000000000000000000000000000 DUP2 MSTORE PUSH1 0x4 ADD PUSH2 0x1182 SWAP2 SWAP1 PUSH2 0x1F9F JUMP JUMPDEST PUSH1 0x40 MLOAD DUP1 SWAP2 SUB SWAP1 REVERT JUMPDEST PUSH1 0x0 PUSH20 0xFFFFFFFFFFFFFFFFFFFFFFFFFFFFFFFFFFFFFFFF DUP3 AND SWAP1 POP SWAP2 SWAP1 POP JUMP JUMPDEST PUSH1 0x0 DUP2 SWAP1 POP SWAP2 SWAP1 POP JUMP JUMPDEST PUSH1 0x0 PUSH2 0x11D0 PUSH2 0x11CB PUSH2 0x11C6 DUP5 PUSH2 0x118B JUMP JUMPDEST PUSH2 0x11AB JUMP JUMPDEST PUSH2 0x118B JUMP JUMPDEST SWAP1 POP SWAP2 SWAP1 POP JUMP JUMPDEST PUSH1 0x0 PUSH2 0x11E2 DUP3 PUSH2 0x11B5 JUMP JUMPDEST SWAP1 POP SWAP2 SWAP1 POP JUMP JUMPDEST PUSH1 0x0 PUSH2 0x11F4 DUP3 PUSH2 0x11D7 JUMP JUMPDEST SWAP1 POP SWAP2 SWAP1 POP JUMP JUMPDEST PUSH2 0x1204 DUP2 PUSH2 0x11E9 JUMP JUMPDEST DUP3 MSTORE POP POP JUMP JUMPDEST PUSH1 0x0 PUSH1 0x20 DUP3 ADD SWAP1 POP PUSH2 0x121F PUSH1 0x0 DUP4 ADD DUP5 PUSH2 0x11FB JUMP JUMPDEST SWAP3 SWAP2 POP POP JUMP JUMPDEST PUSH1 0x0 DUP1 REVERT JUMPDEST PUSH1 0x0 DUP2 SWAP1 POP SWAP2 SWAP1 POP JUMP JUMPDEST PUSH2 0x123D DUP2 PUSH2 0x122A JUMP JUMPDEST DUP2 EQ PUSH2 0x1248 JUMPI PUSH1 0x0 DUP1 REVERT JUMPDEST POP JUMP JUMPDEST PUSH1 0x0 DUP2 CALLDATALOAD SWAP1 POP PUSH2 0x125A DUP2 PUSH2 0x1234 JUMP JUMPDEST SWAP3 SWAP2 POP POP JUMP JUMPDEST PUSH1 0x0 PUSH1 0x20 DUP3 DUP5 SUB SLT ISZERO PUSH2 0x1276 JUMPI PUSH2 0x1275 PUSH2 0x1225 JUMP JUMPDEST JUMPDEST PUSH1 0x0 PUSH2 0x1284 DUP5 DUP3 DUP6 ADD PUSH2 0x124B JUMP JUMPDEST SWAP2 POP POP SWAP3 SWAP2 POP POP JUMP JUMPDEST PUSH1 0x0 DUP2 ISZERO ISZERO SWAP1 POP SWAP2 SWAP1 POP JUMP JUMPDEST PUSH2 0x12A2 DUP2 PUSH2 0x128D JUMP JUMPDEST DUP3 MSTORE POP POP JUMP JUMPDEST PUSH2 0x12B1 DUP2 PUSH2 0x122A JUMP JUMPDEST DUP3 MSTORE POP POP JUMP JUMPDEST PUSH1 0x0 PUSH1 0x40 DUP3 ADD SWAP1 POP PUSH2 0x12CC PUSH1 0x0 DUP4 ADD DUP6 PUSH2 0x1299 JUMP JUMPDEST PUSH2 0x12D9 PUSH1 0x20 DUP4 ADD DUP5 PUSH2 0x12A8 JUMP JUMPDEST SWAP4 SWAP3 POP POP POP JUMP JUMPDEST PUSH1 0x0 PUSH2 0x12EB DUP3 PUSH2 0x11D7 JUMP JUMPDEST SWAP1 POP SWAP2 SWAP1 POP JUMP JUMPDEST PUSH2 0x12FB DUP2 PUSH2 0x12E0 JUMP JUMPDEST DUP3 MSTORE POP POP JUMP JUMPDEST PUSH1 0x0 PUSH1 0x20 DUP3 ADD SWAP1 POP PUSH2 0x1316 PUSH1 0x0 DUP4 ADD DUP5 PUSH2 0x12F2 JUMP JUMPDEST SWAP3 SWAP2 POP POP JUMP JUMPDEST PUSH1 0x0 PUSH2 0x1327 DUP3 PUSH2 0x118B JUMP JUMPDEST SWAP1 POP SWAP2 SWAP1 POP JUMP JUMPDEST PUSH2 0x1337 DUP2 PUSH2 0x131C JUMP JUMPDEST DUP2 EQ PUSH2 0x1342 JUMPI PUSH1 0x0 DUP1 REVERT JUMPDEST POP JUMP JUMPDEST PUSH1 0x0 DUP2 CALLDATALOAD SWAP1 POP PUSH2 0x1354 DUP2 PUSH2 0x132E JUMP JUMPDEST SWAP3 SWAP2 POP POP JUMP JUMPDEST PUSH1 0x0 DUP1 PUSH1 0x0 PUSH1 0x60 DUP5 DUP7 SUB SLT ISZERO PUSH2 0x1373 JUMPI PUSH2 0x1372 PUSH2 0x1225 JUMP JUMPDEST JUMPDEST PUSH1 0x0 PUSH2 0x1381 DUP7 DUP3 DUP8 ADD PUSH2 0x124B JUMP JUMPDEST SWAP4 POP POP PUSH1 0x20 PUSH2 0x1392 DUP7 DUP3 DUP8 ADD PUSH2 0x124B JUMP JUMPDEST SWAP3 POP POP PUSH1 0x40 PUSH2 0x13A3 DUP7 DUP3 DUP8 ADD PUSH2 0x1345 JUMP JUMPDEST SWAP2 POP POP SWAP3 POP SWAP3 POP SWAP3 JUMP JUMPDEST PUSH1 0x0 PUSH1 0x20 DUP3 ADD SWAP1 POP PUSH2 0x13C2 PUSH1 0x0 DUP4 ADD DUP5 PUSH2 0x12A8 JUMP JUMPDEST SWAP3 SWAP2 POP POP JUMP JUMPDEST PUSH2 0x13D1 DUP2 PUSH2 0x131C JUMP JUMPDEST DUP3 MSTORE POP POP JUMP JUMPDEST PUSH1 0x0 PUSH1 0x80 DUP3 ADD SWAP1 POP PUSH2 0x13EC PUSH1 0x0 DUP4 ADD DUP8 PUSH2 0x12A8 JUMP JUMPDEST PUSH2 0x13F9 PUSH1 0x20 DUP4 ADD DUP7 PUSH2 0x12A8 JUMP JUMPDEST PUSH2 0x1406 PUSH1 0x40 DUP4 ADD DUP6 PUSH2 0x13C8 JUMP JUMPDEST PUSH2 0x1413 PUSH1 0x60 DUP4 ADD DUP5 PUSH2 0x1299 JUMP JUMPDEST SWAP6 SWAP5 POP POP POP POP POP JUMP JUMPDEST PUSH1 0x0 PUSH8 0xFFFFFFFFFFFFFFFF DUP3 AND SWAP1 POP SWAP2 SWAP1 POP JUMP JUMPDEST PUSH2 0x1439 DUP2 PUSH2 0x141C JUMP JUMPDEST DUP3 MSTORE POP POP JUMP JUMPDEST PUSH1 0x0 PUSH1 0x20 DUP3 ADD SWAP1 POP PUSH2 0x1454 PUSH1 0x0 DUP4 ADD DUP5 PUSH2 0x1430 JUMP JUMPDEST SWAP3 SWAP2 POP POP JUMP JUMPDEST PUSH2 0x1463 DUP2 PUSH2 0x128D JUMP JUMPDEST DUP2 EQ PUSH2 0x146E JUMPI PUSH1 0x0 DUP1 REVERT JUMPDEST POP JUMP JUMPDEST PUSH1 0x0 DUP2 CALLDATALOAD SWAP1 POP PUSH2 0x1480 DUP2 PUSH2 0x145A JUMP JUMPDEST SWAP3 SWAP2 POP POP JUMP JUMPDEST PUSH1 0x0 DUP1 PUSH1 0x40 DUP4 DUP6 SUB SLT ISZERO PUSH2 0x149D JUMPI PUSH2 0x149C PUSH2 0x1225 JUMP JUMPDEST JUMPDEST PUSH1 0x0 PUSH2 0x14AB DUP6 DUP3 DUP7 ADD PUSH2 0x124B JUMP JUMPDEST SWAP3 POP POP PUSH1 0x20 PUSH2 0x14BC DUP6 DUP3 DUP7 ADD PUSH2 0x1471 JUMP JUMPDEST SWAP2 POP POP SWAP3 POP SWAP3 SWAP1 POP JUMP JUMPDEST PUSH1 0x0 PUSH1 0x20 DUP3 ADD SWAP1 POP PUSH2 0x14DB PUSH1 0x0 DUP4 ADD DUP5 PUSH2 0x13C8 JUMP JUMPDEST SWAP3 SWAP2 POP POP JUMP JUMPDEST PUSH1 0x0 DUP2 SWAP1 POP SWAP2 SWAP1 POP JUMP JUMPDEST PUSH2 0x14F4 DUP2 PUSH2 0x14E1 JUMP JUMPDEST DUP2 EQ PUSH2 0x14FF JUMPI PUSH1 0x0 DUP1 REVERT JUMPDEST POP JUMP JUMPDEST PUSH1 0x0 DUP2 MLOAD SWAP1 POP PUSH2 0x1511 DUP2 PUSH2 0x14EB JUMP JUMPDEST SWAP3 SWAP2 POP POP JUMP JUMPDEST PUSH1 0x0 PUSH1 0x20 DUP3 DUP5 SUB SLT ISZERO PUSH2 0x152D JUMPI PUSH2 0x152C PUSH2 0x1225 JUMP JUMPDEST JUMPDEST PUSH1 0x0 PUSH2 0x153B DUP5 DUP3 DUP6 ADD PUSH2 0x1502 JUMP JUMPDEST SWAP2 POP POP SWAP3 SWAP2 POP POP JUMP JUMPDEST PUSH1 0x0 DUP2 SWAP1 POP SWAP3 SWAP2 POP POP JUMP JUMPDEST PUSH32 0x446174612061737365727465643A203078000000000000000000000000000000 PUSH1 0x0 DUP3 ADD MSTORE POP JUMP JUMPDEST PUSH1 0x0 PUSH2 0x1585 PUSH1 0x11 DUP4 PUSH2 0x1544 JUMP JUMPDEST SWAP2 POP PUSH2 0x1590 DUP3 PUSH2 0x154F JUMP JUMPDEST PUSH1 0x11 DUP3 ADD SWAP1 POP SWAP2 SWAP1 POP JUMP JUMPDEST PUSH1 0x0 DUP2 MLOAD SWAP1 POP SWAP2 SWAP1 POP JUMP JUMPDEST PUSH1 0x0 DUP2 SWAP1 POP SWAP3 SWAP2 POP POP JUMP JUMPDEST PUSH1 0x0 JUMPDEST DUP4 DUP2 LT ISZERO PUSH2 0x15CF JUMPI DUP1 DUP3 ADD MLOAD DUP2 DUP5 ADD MSTORE PUSH1 0x20 DUP2 ADD SWAP1 POP PUSH2 0x15B4 JUMP JUMPDEST PUSH1 0x0 DUP5 DUP5 ADD MSTORE POP POP POP POP JUMP JUMPDEST PUSH1 0x0 PUSH2 0x15E6 DUP3 PUSH2 0x159B JUMP JUMPDEST PUSH2 0x15F0 DUP2 DUP6 PUSH2 0x15A6 JUMP JUMPDEST SWAP4 POP PUSH2 0x1600 DUP2 DUP6 PUSH1 0x20 DUP7 ADD PUSH2 0x15B1 JUMP JUMPDEST DUP1 DUP5 ADD SWAP2 POP POP SWAP3 SWAP2 POP POP JUMP JUMPDEST PUSH32 0x20666F72206461746149643A2030780000000000000000000000000000000000 PUSH1 0x0 DUP3 ADD MSTORE POP JUMP JUMPDEST PUSH1 0x0 PUSH2 0x1642 PUSH1 0xF DUP4 PUSH2 0x1544 JUMP JUMPDEST SWAP2 POP PUSH2 0x164D DUP3 PUSH2 0x160C JUMP JUMPDEST PUSH1 0xF DUP3 ADD SWAP1 POP SWAP2 SWAP1 POP JUMP JUMPDEST PUSH32 0x20616E642061737365727465723A203078000000000000000000000000000000 PUSH1 0x0 DUP3 ADD MSTORE POP JUMP JUMPDEST PUSH1 0x0 PUSH2 0x168E PUSH1 0x11 DUP4 PUSH2 0x1544 JUMP JUMPDEST SWAP2 POP PUSH2 0x1699 DUP3 PUSH2 0x1658 JUMP JUMPDEST PUSH1 0x11 DUP3 ADD SWAP1 POP SWAP2 SWAP1 POP JUMP JUMPDEST PUSH32 0x2061742074696D657374616D703A200000000000000000000000000000000000 PUSH1 0x0 DUP3 ADD MSTORE POP JUMP JUMPDEST PUSH1 0x0 PUSH2 0x16DA PUSH1 0xF DUP4 PUSH2 0x1544 JUMP JUMPDEST SWAP2 POP PUSH2 0x16E5 DUP3 PUSH2 0x16A4 JUMP JUMPDEST PUSH1 0xF DUP3 ADD SWAP1 POP SWAP2 SWAP1 POP JUMP JUMPDEST PUSH32 0x20696E207468652044617461417373657274657220636F6E7472616374206174 PUSH1 0x0 DUP3 ADD MSTORE PUSH32 0x2030780000000000000000000000000000000000000000000000000000000000 PUSH1 0x20 DUP3 ADD MSTORE POP JUMP JUMPDEST PUSH1 0x0 PUSH2 0x174C PUSH1 0x23 DUP4 PUSH2 0x1544 JUMP JUMPDEST SWAP2 POP PUSH2 0x1757 DUP3 PUSH2 0x16F0 JUMP JUMPDEST PUSH1 0x23 DUP3 ADD SWAP1 POP SWAP2 SWAP1 POP JUMP JUMPDEST PUSH32 0x2069732076616C69642E00000000000000000000000000000000000000000000 PUSH1 0x0 DUP3 ADD MSTORE POP JUMP JUMPDEST PUSH1 0x0 PUSH2 0x1798 PUSH1 0xA DUP4 PUSH2 0x1544 JUMP JUMPDEST SWAP2 POP PUSH2 0x17A3 DUP3 PUSH2 0x1762 JUMP JUMPDEST PUSH1 0xA DUP3 ADD SWAP1 POP SWAP2 SWAP1 POP JUMP JUMPDEST PUSH1 0x0 PUSH2 0x17B9 DUP3 PUSH2 0x1578 JUMP JUMPDEST SWAP2 POP PUSH2 0x17C5 DUP3 DUP9 PUSH2 0x15DB JUMP JUMPDEST SWAP2 POP PUSH2 0x17D0 DUP3 PUSH2 0x1635 JUMP JUMPDEST SWAP2 POP PUSH2 0x17DC DUP3 DUP8 PUSH2 0x15DB JUMP JUMPDEST SWAP2 POP PUSH2 0x17E7 DUP3 PUSH2 0x1681 JUMP JUMPDEST SWAP2 POP PUSH2 0x17F3 DUP3 DUP7 PUSH2 0x15DB JUMP JUMPDEST SWAP2 POP PUSH2 0x17FE DUP3 PUSH2 0x16CD JUMP JUMPDEST SWAP2 POP PUSH2 0x180A DUP3 DUP6 PUSH2 0x15DB JUMP JUMPDEST SWAP2 POP PUSH2 0x1815 DUP3 PUSH2 0x173F JUMP JUMPDEST SWAP2 POP PUSH2 0x1821 DUP3 DUP5 PUSH2 0x15DB JUMP JUMPDEST SWAP2 POP PUSH2 0x182C DUP3 PUSH2 0x178B JUMP JUMPDEST SWAP2 POP DUP2 SWAP1 POP SWAP7 SWAP6 POP POP POP POP POP POP JUMP JUMPDEST PUSH1 0x0 DUP3 DUP3 MSTORE PUSH1 0x20 DUP3 ADD SWAP1 POP SWAP3 SWAP2 POP POP JUMP JUMPDEST PUSH1 0x0 PUSH1 0x1F NOT PUSH1 0x1F DUP4 ADD AND SWAP1 POP SWAP2 SWAP1 POP JUMP JUMPDEST PUSH1 0x0 PUSH2 0x1868 DUP3 PUSH2 0x159B JUMP JUMPDEST PUSH2 0x1872 DUP2 DUP6 PUSH2 0x183B JUMP JUMPDEST SWAP4 POP PUSH2 0x1882 DUP2 DUP6 PUSH1 0x20 DUP7 ADD PUSH2 0x15B1 JUMP JUMPDEST PUSH2 0x188B DUP2 PUSH2 0x184C JUMP JUMPDEST DUP5 ADD SWAP2 POP POP SWAP3 SWAP2 POP POP JUMP JUMPDEST PUSH2 0x189F DUP2 PUSH2 0x14E1 JUMP JUMPDEST DUP3 MSTORE POP POP JUMP JUMPDEST PUSH1 0x0 PUSH2 0x120 DUP3 ADD SWAP1 POP DUP2 DUP2 SUB PUSH1 0x0 DUP4 ADD MSTORE PUSH2 0x18C0 DUP2 DUP13 PUSH2 0x185D JUMP JUMPDEST SWAP1 POP PUSH2 0x18CF PUSH1 0x20 DUP4 ADD DUP12 PUSH2 0x13C8 JUMP JUMPDEST PUSH2 0x18DC PUSH1 0x40 DUP4 ADD DUP11 PUSH2 0x13C8 JUMP JUMPDEST PUSH2 0x18E9 PUSH1 0x60 DUP4 ADD DUP10 PUSH2 0x13C8 JUMP JUMPDEST PUSH2 0x18F6 PUSH1 0x80 DUP4 ADD DUP9 PUSH2 0x1430 JUMP JUMPDEST PUSH2 0x1903 PUSH1 0xA0 DUP4 ADD DUP8 PUSH2 0x11FB JUMP JUMPDEST PUSH2 0x1910 PUSH1 0xC0 DUP4 ADD DUP7 PUSH2 0x1896 JUMP JUMPDEST PUSH2 0x191D PUSH1 0xE0 DUP4 ADD DUP6 PUSH2 0x12A8 JUMP JUMPDEST PUSH2 0x192B PUSH2 0x100 DUP4 ADD DUP5 PUSH2 0x12A8 JUMP JUMPDEST SWAP11 SWAP10 POP POP POP POP POP POP POP POP POP POP JUMP JUMPDEST PUSH1 0x0 DUP2 MLOAD SWAP1 POP PUSH2 0x1948 DUP2 PUSH2 0x1234 JUMP JUMPDEST SWAP3 SWAP2 POP POP JUMP JUMPDEST PUSH1 0x0 PUSH1 0x20 DUP3 DUP5 SUB SLT ISZERO PUSH2 0x1964 JUMPI PUSH2 0x1963 PUSH2 0x1225 JUMP JUMPDEST JUMPDEST PUSH1 0x0 PUSH2 0x1972 DUP5 DUP3 DUP6 ADD PUSH2 0x1939 JUMP JUMPDEST SWAP2 POP POP SWAP3 SWAP2 POP POP JUMP JUMPDEST PUSH1 0x0 PUSH1 0x60 DUP3 ADD SWAP1 POP PUSH2 0x1990 PUSH1 0x0 DUP4 ADD DUP7 PUSH2 0x13C8 JUMP JUMPDEST PUSH2 0x199D PUSH1 0x20 DUP4 ADD DUP6 PUSH2 0x13C8 JUMP JUMPDEST PUSH2 0x19AA PUSH1 0x40 DUP4 ADD DUP5 PUSH2 0x1896 JUMP JUMPDEST SWAP5 SWAP4 POP POP POP POP JUMP JUMPDEST PUSH1 0x0 PUSH1 0x40 DUP3 ADD SWAP1 POP PUSH2 0x19C7 PUSH1 0x0 DUP4 ADD DUP6 PUSH2 0x13C8 JUMP JUMPDEST PUSH2 0x19D4 PUSH1 0x20 DUP4 ADD DUP5 PUSH2 0x13C8 JUMP JUMPDEST SWAP4 SWAP3 POP POP POP JUMP JUMPDEST PUSH1 0x0 DUP3 DUP3 MSTORE PUSH1 0x20 DUP3 ADD SWAP1 POP SWAP3 SWAP2 POP POP JUMP JUMPDEST PUSH32 0x5361666545524332303A20617070726F76652066726F6D206E6F6E2D7A65726F PUSH1 0x0 DUP3 ADD MSTORE PUSH32 0x20746F206E6F6E2D7A65726F20616C6C6F77616E636500000000000000000000 PUSH1 0x20 DUP3 ADD MSTORE POP JUMP JUMPDEST PUSH1 0x0 PUSH2 0x1A48 PUSH1 0x36 DUP4 PUSH2 0x19DB JUMP JUMPDEST SWAP2 POP PUSH2 0x1A53 DUP3 PUSH2 0x19EC JUMP JUMPDEST PUSH1 0x40 DUP3 ADD SWAP1 POP SWAP2 SWAP1 POP JUMP JUMPDEST PUSH1 0x0 PUSH1 0x20 DUP3 ADD SWAP1 POP DUP2 DUP2 SUB PUSH1 0x0 DUP4 ADD MSTORE PUSH2 0x1A77 DUP2 PUSH2 0x1A3B JUMP JUMPDEST SWAP1 POP SWAP2 SWAP1 POP JUMP JUMPDEST PUSH1 0x0 PUSH1 0x40 DUP3 ADD SWAP1 POP PUSH2 0x1A93 PUSH1 0x0 DUP4 ADD DUP6 PUSH2 0x13C8 JUMP JUMPDEST PUSH2 0x1AA0 PUSH1 0x20 DUP4 ADD DUP5 PUSH2 0x1896 JUMP JUMPDEST SWAP4 SWAP3 POP POP POP JUMP JUMPDEST PUSH1 0x0 DUP2 SWAP1 POP SWAP2 SWAP1 POP JUMP JUMPDEST PUSH2 0x1AC2 PUSH2 0x1ABD DUP3 PUSH2 0x122A JUMP JUMPDEST PUSH2 0x1AA7 JUMP JUMPDEST DUP3 MSTORE POP POP JUMP JUMPDEST PUSH1 0x0 PUSH2 0x1AD4 DUP3 DUP6 PUSH2 0x1AB1 JUMP JUMPDEST PUSH1 0x20 DUP3 ADD SWAP2 POP PUSH2 0x1AE4 DUP3 DUP5 PUSH2 0x1AB1 JUMP JUMPDEST PUSH1 0x20 DUP3 ADD SWAP2 POP DUP2 SWAP1 POP SWAP4 SWAP3 POP POP POP JUMP JUMPDEST PUSH1 0x0 PUSH32 0xFFFFFFFFFFFFFFFF000000000000000000000000000000000000000000000000 DUP3 AND SWAP1 POP SWAP2 SWAP1 POP JUMP JUMPDEST PUSH1 0x0 DUP2 SWAP1 POP SWAP2 SWAP1 POP JUMP JUMPDEST PUSH2 0x1B3B PUSH2 0x1B36 DUP3 PUSH2 0x1AF4 JUMP JUMPDEST PUSH2 0x1B20 JUMP JUMPDEST DUP3 MSTORE POP POP JUMP JUMPDEST PUSH1 0x0 PUSH2 0x1B4D DUP3 DUP6 PUSH2 0x1AB1 JUMP JUMPDEST PUSH1 0x20 DUP3 ADD SWAP2 POP PUSH2 0x1B5D DUP3 DUP5 PUSH2 0x1B2A JUMP JUMPDEST PUSH1 0x8 DUP3 ADD SWAP2 POP DUP2 SWAP1 POP SWAP4 SWAP3 POP POP POP JUMP JUMPDEST PUSH32 0x4E487B7100000000000000000000000000000000000000000000000000000000 PUSH1 0x0 MSTORE PUSH1 0x11 PUSH1 0x4 MSTORE PUSH1 0x24 PUSH1 0x0 REVERT JUMPDEST PUSH1 0x0 PUSH2 0x1BA7 DUP3 PUSH2 0x14E1 JUMP JUMPDEST SWAP2 POP PUSH32 0xFFFFFFFFFFFFFFFFFFFFFFFFFFFFFFFFFFFFFFFFFFFFFFFFFFFFFFFFFFFFFFFF DUP3 SUB PUSH2 0x1BD9 JUMPI PUSH2 0x1BD8 PUSH2 0x1B6D JUMP JUMPDEST JUMPDEST PUSH1 0x1 DUP3 ADD SWAP1 POP SWAP2 SWAP1 POP JUMP JUMPDEST PUSH32 0x4E487B7100000000000000000000000000000000000000000000000000000000 PUSH1 0x0 MSTORE PUSH1 0x12 PUSH1 0x4 MSTORE PUSH1 0x24 PUSH1 0x0 REVERT JUMPDEST PUSH1 0x0 PUSH2 0x1C1E DUP3 PUSH2 0x14E1 JUMP JUMPDEST SWAP2 POP PUSH2 0x1C29 DUP4 PUSH2 0x14E1 JUMP JUMPDEST SWAP3 POP DUP3 PUSH2 0x1C39 JUMPI PUSH2 0x1C38 PUSH2 0x1BE4 JUMP JUMPDEST JUMPDEST DUP3 DUP3 DIV SWAP1 POP SWAP3 SWAP2 POP POP JUMP JUMPDEST PUSH32 0x4E487B7100000000000000000000000000000000000000000000000000000000 PUSH1 0x0 MSTORE PUSH1 0x41 PUSH1 0x4 MSTORE PUSH1 0x24 PUSH1 0x0 REVERT JUMPDEST PUSH1 0x0 PUSH2 0x1C7E DUP3 PUSH2 0x14E1 JUMP JUMPDEST SWAP2 POP PUSH2 0x1C89 DUP4 PUSH2 0x14E1 JUMP JUMPDEST SWAP3 POP DUP3 DUP3 SUB SWAP1 POP DUP2 DUP2 GT ISZERO PUSH2 0x1CA1 JUMPI PUSH2 0x1CA0 PUSH2 0x1B6D JUMP JUMPDEST JUMPDEST SWAP3 SWAP2 POP POP JUMP JUMPDEST PUSH1 0x0 PUSH2 0x1CB2 DUP3 PUSH2 0x14E1 JUMP JUMPDEST SWAP2 POP PUSH2 0x1CBD DUP4 PUSH2 0x14E1 JUMP JUMPDEST SWAP3 POP DUP2 PUSH32 0xFFFFFFFFFFFFFFFFFFFFFFFFFFFFFFFFFFFFFFFFFFFFFFFFFFFFFFFFFFFFFFFF DIV DUP4 GT DUP3 ISZERO ISZERO AND ISZERO PUSH2 0x1CF6 JUMPI PUSH2 0x1CF5 PUSH2 0x1B6D JUMP JUMPDEST JUMPDEST DUP3 DUP3 MUL SWAP1 POP SWAP3 SWAP2 POP POP JUMP JUMPDEST PUSH1 0x0 PUSH1 0xFF DUP3 AND SWAP1 POP SWAP2 SWAP1 POP JUMP JUMPDEST PUSH1 0x0 PUSH2 0x1D19 DUP3 PUSH2 0x1D01 JUMP JUMPDEST SWAP2 POP PUSH2 0x1D24 DUP4 PUSH2 0x1D01 JUMP JUMPDEST SWAP3 POP DUP3 DUP3 ADD SWAP1 POP PUSH1 0xFF DUP2 GT ISZERO PUSH2 0x1D3D JUMPI PUSH2 0x1D3C PUSH2 0x1B6D JUMP JUMPDEST JUMPDEST SWAP3 SWAP2 POP POP JUMP JUMPDEST PUSH32 0x4E487B7100000000000000000000000000000000000000000000000000000000 PUSH1 0x0 MSTORE PUSH1 0x32 PUSH1 0x4 MSTORE PUSH1 0x24 PUSH1 0x0 REVERT JUMPDEST PUSH1 0x0 DUP2 MLOAD SWAP1 POP PUSH2 0x1D81 DUP2 PUSH2 0x145A JUMP JUMPDEST SWAP3 SWAP2 POP POP JUMP JUMPDEST PUSH1 0x0 PUSH1 0x20 DUP3 DUP5 SUB SLT ISZERO PUSH2 0x1D9D JUMPI PUSH2 0x1D9C PUSH2 0x1225 JUMP JUMPDEST JUMPDEST PUSH1 0x0 PUSH2 0x1DAB DUP5 DUP3 DUP6 ADD PUSH2 0x1D72 JUMP JUMPDEST SWAP2 POP POP SWAP3 SWAP2 POP POP JUMP JUMPDEST PUSH32 0x5361666545524332303A204552433230206F7065726174696F6E20646964206E PUSH1 0x0 DUP3 ADD MSTORE PUSH32 0x6F74207375636365656400000000000000000000000000000000000000000000 PUSH1 0x20 DUP3 ADD MSTORE POP JUMP JUMPDEST PUSH1 0x0 PUSH2 0x1E10 PUSH1 0x2A DUP4 PUSH2 0x19DB JUMP JUMPDEST SWAP2 POP PUSH2 0x1E1B DUP3 PUSH2 0x1DB4 JUMP JUMPDEST PUSH1 0x40 DUP3 ADD SWAP1 POP SWAP2 SWAP1 POP JUMP JUMPDEST PUSH1 0x0 PUSH1 0x20 DUP3 ADD SWAP1 POP DUP2 DUP2 SUB PUSH1 0x0 DUP4 ADD MSTORE PUSH2 0x1E3F DUP2 PUSH2 0x1E03 JUMP JUMPDEST SWAP1 POP SWAP2 SWAP1 POP JUMP JUMPDEST PUSH32 0x416464726573733A20696E73756666696369656E742062616C616E636520666F PUSH1 0x0 DUP3 ADD MSTORE PUSH32 0x722063616C6C0000000000000000000000000000000000000000000000000000 PUSH1 0x20 DUP3 ADD MSTORE POP JUMP JUMPDEST PUSH1 0x0 PUSH2 0x1EA2 PUSH1 0x26 DUP4 PUSH2 0x19DB JUMP JUMPDEST SWAP2 POP PUSH2 0x1EAD DUP3 PUSH2 0x1E46 JUMP JUMPDEST PUSH1 0x40 DUP3 ADD SWAP1 POP SWAP2 SWAP1 POP JUMP JUMPDEST PUSH1 0x0 PUSH1 0x20 DUP3 ADD SWAP1 POP DUP2 DUP2 SUB PUSH1 0x0 DUP4 ADD MSTORE PUSH2 0x1ED1 DUP2 PUSH2 0x1E95 JUMP JUMPDEST SWAP1 POP SWAP2 SWAP1 POP JUMP JUMPDEST PUSH1 0x0 PUSH2 0x1EE4 DUP3 DUP5 PUSH2 0x15DB JUMP JUMPDEST SWAP2 POP DUP2 SWAP1 POP SWAP3 SWAP2 POP POP JUMP JUMPDEST PUSH32 0x416464726573733A2063616C6C20746F206E6F6E2D636F6E7472616374000000 PUSH1 0x0 DUP3 ADD MSTORE POP JUMP JUMPDEST PUSH1 0x0 PUSH2 0x1F25 PUSH1 0x1D DUP4 PUSH2 0x19DB JUMP JUMPDEST SWAP2 POP PUSH2 0x1F30 DUP3 PUSH2 0x1EEF JUMP JUMPDEST PUSH1 0x20 DUP3 ADD SWAP1 POP SWAP2 SWAP1 POP JUMP JUMPDEST PUSH1 0x0 PUSH1 0x20 DUP3 ADD SWAP1 POP DUP2 DUP2 SUB PUSH1 0x0 DUP4 ADD MSTORE PUSH2 0x1F54 DUP2 PUSH2 0x1F18 JUMP JUMPDEST SWAP1 POP SWAP2 SWAP1 POP JUMP JUMPDEST PUSH1 0x0 DUP2 MLOAD SWAP1 POP SWAP2 SWAP1 POP JUMP JUMPDEST PUSH1 0x0 PUSH2 0x1F71 DUP3 PUSH2 0x1F5B JUMP JUMPDEST PUSH2 0x1F7B DUP2 DUP6 PUSH2 0x19DB JUMP JUMPDEST SWAP4 POP PUSH2 0x1F8B DUP2 DUP6 PUSH1 0x20 DUP7 ADD PUSH2 0x15B1 JUMP JUMPDEST PUSH2 0x1F94 DUP2 PUSH2 0x184C JUMP JUMPDEST DUP5 ADD SWAP2 POP POP SWAP3 SWAP2 POP POP JUMP JUMPDEST PUSH1 0x0 PUSH1 0x20 DUP3 ADD SWAP1 POP DUP2 DUP2 SUB PUSH1 0x0 DUP4 ADD MSTORE PUSH2 0x1FB9 DUP2 DUP5 PUSH2 0x1F66 JUMP JUMPDEST SWAP1 POP SWAP3 SWAP2 POP POP JUMP INVALID LOG2 PUSH5 0x6970667358 0x22 SLT KECCAK256 0xE7 0xD8 CODECOPY 0xFB PUSH9 0xCFAE3D86B3534A6A9F 0xB5 0xB0 0xBB 0xB8 0x4B PUSH23 0x71AF0694142078F1ED1B4E064736F6C63430008100033 "
		},
		"gasEstimates": {
			"creation": {
				"codeDepositCost": "1636600",
				"executionCost": "infinite",
				"totalCost": "infinite"
			},
			"external": {
				"assertDataFor(bytes32,bytes32,address)": "infinite",
				"assertionDisputedCallback(bytes32)": "450",
				"assertionLiveness()": "357",
				"assertionResolvedCallback(bytes32,bool)": "infinite",
				"assertionsData(bytes32)": "infinite",
				"defaultCurrency()": "infinite",
				"defaultIdentifier()": "infinite",
				"getData(bytes32)": "infinite",
				"oo()": "infinite"
			}
		},
		"methodIdentifiers": {
			"assertDataFor(bytes32,bytes32,address)": "93ee663b",
			"assertionDisputedCallback(bytes32)": "d448a4ec",
			"assertionLiveness()": "b75d4e24",
			"assertionResolvedCallback(bytes32,bool)": "f1b156b2",
			"assertionsData(bytes32)": "b33893da",
			"defaultCurrency()": "20402e1d",
			"defaultIdentifier()": "d509b017",
			"getData(bytes32)": "54f6127f",
			"oo()": "8921a614"
		}
	},
	"abi": [
		{
			"inputs": [
				{
					"internalType": "address",
					"name": "_defaultCurrency",
					"type": "address"
				},
				{
					"internalType": "address",
					"name": "_optimisticOracleV3",
					"type": "address"
				}
			],
			"stateMutability": "nonpayable",
			"type": "constructor"
		},
		{
			"anonymous": false,
			"inputs": [
				{
					"indexed": true,
					"internalType": "bytes32",
					"name": "dataId",
					"type": "bytes32"
				},
				{
					"indexed": false,
					"internalType": "bytes32",
					"name": "data",
					"type": "bytes32"
				},
				{
					"indexed": true,
					"internalType": "address",
					"name": "asserter",
					"type": "address"
				},
				{
					"indexed": true,
					"internalType": "bytes32",
					"name": "assertionId",
					"type": "bytes32"
				}
			],
			"name": "DataAsserted",
			"type": "event"
		},
		{
			"anonymous": false,
			"inputs": [
				{
					"indexed": true,
					"internalType": "bytes32",
					"name": "dataId",
					"type": "bytes32"
				},
				{
					"indexed": false,
					"internalType": "bytes32",
					"name": "data",
					"type": "bytes32"
				},
				{
					"indexed": true,
					"internalType": "address",
					"name": "asserter",
					"type": "address"
				},
				{
					"indexed": true,
					"internalType": "bytes32",
					"name": "assertionId",
					"type": "bytes32"
				}
			],
			"name": "DataAssertionResolved",
			"type": "event"
		},
		{
			"inputs": [
				{
					"internalType": "bytes32",
					"name": "dataId",
					"type": "bytes32"
				},
				{
					"internalType": "bytes32",
					"name": "data",
					"type": "bytes32"
				},
				{
					"internalType": "address",
					"name": "asserter",
					"type": "address"
				}
			],
			"name": "assertDataFor",
			"outputs": [
				{
					"internalType": "bytes32",
					"name": "assertionId",
					"type": "bytes32"
				}
			],
			"stateMutability": "nonpayable",
			"type": "function"
		},
		{
			"inputs": [
				{
					"internalType": "bytes32",
					"name": "assertionId",
					"type": "bytes32"
				}
			],
			"name": "assertionDisputedCallback",
			"outputs": [],
			"stateMutability": "nonpayable",
			"type": "function"
		},
		{
			"inputs": [],
			"name": "assertionLiveness",
			"outputs": [
				{
					"internalType": "uint64",
					"name": "",
					"type": "uint64"
				}
			],
			"stateMutability": "view",
			"type": "function"
		},
		{
			"inputs": [
				{
					"internalType": "bytes32",
					"name": "assertionId",
					"type": "bytes32"
				},
				{
					"internalType": "bool",
					"name": "assertedTruthfully",
					"type": "bool"
				}
			],
			"name": "assertionResolvedCallback",
			"outputs": [],
			"stateMutability": "nonpayable",
			"type": "function"
		},
		{
			"inputs": [
				{
					"internalType": "bytes32",
					"name": "",
					"type": "bytes32"
				}
			],
			"name": "assertionsData",
			"outputs": [
				{
					"internalType": "bytes32",
					"name": "dataId",
					"type": "bytes32"
				},
				{
					"internalType": "bytes32",
					"name": "data",
					"type": "bytes32"
				},
				{
					"internalType": "address",
					"name": "asserter",
					"type": "address"
				},
				{
					"internalType": "bool",
					"name": "resolved",
					"type": "bool"
				}
			],
			"stateMutability": "view",
			"type": "function"
		},
		{
			"inputs": [],
			"name": "defaultCurrency",
			"outputs": [
				{
					"internalType": "contract IERC20",
					"name": "",
					"type": "address"
				}
			],
			"stateMutability": "view",
			"type": "function"
		},
		{
			"inputs": [],
			"name": "defaultIdentifier",
			"outputs": [
				{
					"internalType": "bytes32",
					"name": "",
					"type": "bytes32"
				}
			],
			"stateMutability": "view",
			"type": "function"
		},
		{
			"inputs": [
				{
					"internalType": "bytes32",
					"name": "assertionId",
					"type": "bytes32"
				}
			],
			"name": "getData",
			"outputs": [
				{
					"internalType": "bool",
					"name": "",
					"type": "bool"
				},
				{
					"internalType": "bytes32",
					"name": "",
					"type": "bytes32"
				}
			],
			"stateMutability": "view",
			"type": "function"
		},
		{
			"inputs": [],
			"name": "oo",
			"outputs": [
				{
					"internalType": "contract OptimisticOracleV3Interface",
					"name": "",
					"type": "address"
				}
			],
			"stateMutability": "view",
			"type": "function"
		}
	]
}